S010000050726F6A656374322E737265630B
S113000071C0000081C000007FC000007DC00000FE
S11300107BC0000079C0000077C0000075C00000FC
S113002073C0000071C000006FC000006DC000000C
S11300306BC0000069C0000067C0000065C000001C
S113004063C0000061C000005FC000005DC000002C
S11300505BC0000059C0000057C0000055C000003C
S113006053C0000051C000004FC000004DC000004C
S11300704BC0000049C0000047C0000045C000005C
S11300808BC2000041C000003FC000003DC0000022
S11300903BC0000039C0000037C0000035C000007C
S11300A033C0000031C000002FC000002DC000008C
S11300B02BC0000029C0000027C0000025C000009C
S11300C023C0000021C000001FC000001DC00000AC
S11300D01BC0000019C0000017C0000015C00000BC
S11300E013C0000011241FBECFEFD1E2DEBFCDBF8D
S11300F000E00CBF2AE0A0E0B2E001C01D92A43CE5
S1130100B207E1F752D260C27BCF0F921F922F92B7
S11301103F924F925F926F927F928F929F92AF9293
S1130120BF92CF92DF92EF92FF920F931F932F9380
S11301303F934F935F936F937F938F939F93AF936B
S1130140BF93CF93DF93EF93FF93FCB7FF93FFB776
S1130150FF93EDB7FEB7E093C20AF093C30AE091B0
S1130160C00AF091C10AEDBFFEBFFF91FFBFFF912E
S1130170FCBFFF91EF91DF91CF91BF91AF919F9120
S11301808F917F916F915F914F913F912F911F912B
S11301900F91FF90EF90DF90CF90BF90AF909F9022
S11301A08F907F906F905F904F903F902F901F9013
S11301B00F9018950F921F922F923F924F925F9239
S11301C06F927F928F929F92AF92BF92CF92DF9263
S11301D0EF92FF920F931F932F933F934F935F934D
S11301E06F937F938F939F93AF93BF93CF93DF933B
S11301F0EF93FF93FCB7FF93FFB7FF93EDB7FEB701
S1130200E093C00AF093C10AE091C20AF091C30AD4
S1130210EDBFFEBFFF91FFBFFF91FCBFFF91EF91C8
S1130220DF91CF91BF91AF919F918F917F916F910A
S11302305F914F913F912F911F910F91FF90EF90FC
S1130240DF90CF90BF90AF909F908F907F906F90F2
S11302505F904F903F902F901F900F90089526E14C
S113026031E00BC0809104029091050201968770E1
S1130270992790930502809304028091040290913F
S11302800502829FF001839FF00D929FF00D1124CF
S1130290E05FFC4F8081813029F720910402309186
S11302A0050286E191E0289FF001299FF00D389F17
S11302B0F00D1124E45FFD4FF0930B02E0930A026A
S11302C0808191819093C10A8093C00AEC5FFE4FB4
S11302D082E08083809104029091050201968770E8
S11302E09927909305028093040208958091020255
S11302F090910302892B51F0F894E0910A02F09155
S11303000B02E35FFE4F88E0808354CF0895FC0125
S1130310329620E031E0DF01A9011D9241505040A6
S1130320E1F7E150FF4F26E731E020833197308336
S1130330319710823197608331977083319710829F
S11303409C0127523F4FDC012D933C933F966083E1
S1130350718332961082399781E080830895BC01BD
S11303608091000290910102089751F1809110034D
S1130370882379F0E6E2F4E021E030E090819923EB
S113038051F02F5F3F4FEA5EFE4F28303105B1F741
S113039002C020E030E080910002909101020196B9
S11303A0909301028093000246E151E0249FC00132
S11303B0259F900D349F900D1124845F9D4FA7CFEE
S11303C0089581E081B980E884B9EAE0F1E08081B0
S11303D08260808382E081B91198109201021092A8
S11303E0000210920302109202021092050210926F
S11303F00402ECE0F2E02CEB3AE086E191E0DF016C
S1130400AC011D9241505040E1F7DF01AC5FBE4F9B
S11304101C92EA5EFE4FE217F30789F708951F93D3
S1130420CF93DF938091020290910302892B09F00C
S113043063C08091000290910102892B09F45CC091
S1130440F89481E090E0909303028093020207DF26
S1130450C1E0D0E011E0E0910A02F0910B02DF016B
S1130460A35FBE4F1C92808191819093C10A8093B7
S1130470C00A4BDEE0910A02F0910B028091C00A9F
S11304809091C10A91838083DF01A35FBE4F8C9159
S1130490823099F028F4882381F0813041F0DBCF59
S11304A08630E9F0883019F18430A9F60BC0E55F95
S11304B0FE4F8081918153DFCECFEC5FFE4F1083DE
S11304C0CEDEC9CFDF01AC5EBE4F1196DC93CE9376
S11304D050978C91823029F41C93DF0103C0DF0113
S11304E001C0DF01AC5EBE4F11961C921E92EC5F00
S11304F0FE4F1082B4DEAFCFDF91CF911F910895EC
S11305002091020230910302232B79F0F894209178
S11305100A0230910B02F901E35FFE4F41E0408390
S113052032979183808346CE089519CF08958091A0
S1130530020290910302892B51F0F894E0910A028F
S1130540F0910B02E35FFE4F82E0808333CE089587
S1130550D0E0CDE710982F988D2F9C2F0197F1F7BD
S11305608D2F9C2F0197F1F78D2F9C2F0197F1F779
S1130570DEDFF0CFD0E0CDE7109A2F9A8D2F9C2F9D
S11305800197F1F78D2F9C2F0197F1F78D2F9C2F59
S11305900197F1F7CCDFF0CF80910602909107022A
S11305A0909301008093000008950BDF48E050E031
S11305B068E088EA92E0A4DF48E050E068E08AEB73
S10F05C092E09EDF2CCF0895F894FFCF4A
S9030000FC
