S010000050726F6A656374322E737265630B
S113000071C0000081C000007FC000007DC00000FE
S11300107BC0000079C0000077C0000075C00000FC
S113002073C0000071C000006FC000006DC000000C
S11300306BC0000069C0000067C0000065C000001C
S113004063C0000061C000005FC000005DC000002C
S11300505BC0000081C2000057C0000055C0000012
S113006053C0000051C000004FC000004DC000004C
S11300704BC0000049C0000047C0000045C000005C
S113008043C0000041C000003FC000003DC000006C
S11300903BC0000039C0000037C0000035C000007C
S11300A033C0000031C000002FC000002DC000008C
S11300B02BC0000029C0000027C0000025C000009C
S11300C023C0000021C000001FC000001DC00000AC
S11300D01BC0000019C0000017C0000015C00000BC
S11300E013C0000011241FBECFEFD1E2DEBFCDBF8D
S11300F000E00CBF26E0A0E0B2E001C01D92A432F3
S1130100B207E1F750D26FC27BCF0F921F922F92AA
S11301103F924F925F926F927F928F929F92AF9293
S1130120BF92CF92DF92EF92FF920F931F932F9380
S11301303F934F935F936F937F938F939F93AF936B
S1130140BF93CF93DF93EF93FF93FCB7FF93FFB776
S1130150FF93EDB7FEB7E0932206F0932306E091F8
S11301602006F0912106EDBFFEBFFF91FFBFFF9176
S1130170FCBFFF91EF91DF91CF91BF91AF919F9120
S11301808F917F916F915F914F913F912F911F912B
S11301900F91FF90EF90DF90CF90BF90AF909F9022
S11301A08F907F906F905F904F903F902F901F9013
S11301B00F9018950F921F922F923F924F925F9239
S11301C06F927F928F929F92AF92BF92CF92DF9263
S11301D0EF92FF920F931F932F933F934F935F934D
S11301E06F937F938F939F93AF93BF93CF93DF933B
S11301F0EF93FF93FCB7FF93FFB7FF93EDB7FEB701
S1130200E0932006F0932106E0912206F091230664
S1130210EDBFFEBFFF91FFBFFF91FCBFFF91EF91C8
S1130220DF91CF91BF91AF919F918F917F916F910A
S11302305F914F913F912F911F910F91FF90EF90FC
S1130240DF90CF90BF90AF909F908F907F906F90F2
S11302505F904F903F902F901F900F90089526E04D
S113026031E00BC0809104029091050201968370E5
S1130270992790930502809304028091040290913F
S11302800502829FF001839FF00D929FF00D1124CF
S1130290E65FFC4F8081813029F720910402309180
S11302A0050286E091E0289FF001299FF00D389F18
S11302B0F00D1124E85FFD4FF0930702E09306026E
S11302C0808191819093210680932006EE5FFE4FFA
S11302D082E08083809104029091050201968370EC
S11302E09927909305028093040208952F9AEBE0D6
S11302F0F1E080818260808330E02DE7832F922FAC
S11303000197F1F7832F922F0197F1F7832F922F03
S11303100197F1F7F3CFEBE0F1E030E02DE72F9810
S113032080818D7F8083832F922F0197F1F7832F14
S1130330922F0197F1F7832F922F0197F1F7EFCFC7
S11303408091020290910302892B51F0F894E0917C
S11303500602F0910702EB5FFE4F83E080832ACF11
S11303600895FC01329620E031E0DF01A9011D92DD
S113037041505040E1F7E150FF4F20EA31E0208343
S1130380319730833197608331977083319710822E
S11303909C0126523F4FDC012D933C93369660839B
S11303A0718332961082339781E08083089520917F
S11303B000023091010224303105A1F120910A0399
S11303C02223A9F020911004222359F0209116052C
S11303D0222351F020911C0621110CC043E050E06F
S11303E00BC041E050E008C042E050E005C040E0EE
S11303F050E002C044E050E0BC01809100029091C2
S113040001020196909301028093000226E031E0FC
S1130410429FC001439F900D529F900D1124885F0D
S11304209D4F9FCF089510920102109200021092E6
S11304300302109202021092050210920402E8E0F4
S1130440F2E020E236E086E091E0DF01AC011D92AB
S113045041505040E1F7DF01AE5FBE4F1C92EA5FAE
S1130460FE4FE217F30789F70895CF9380910202B4
S113047090910302892B09F045C08091000290916C
S11304800102892B09F43EC0F89481E090E0909336
S1130490030280930202E3DEC1E0E0910602F091E0
S11304A00702DF01AB5FBE4F1C9280819181909364
S11304B021068093200629DEE0910602F0910702CE
S11304C0809120069091210691838083DF01AB5FA8
S11304D0BE4F8C91813031F058F0823049F0833036
S11304E061F0DBCFED5FFE4F8081918160DFD5CF7E
S11304F0EE5FFE4FC083B3DED0CFEE5FFE4F1082BF
S1130500AEDECBCFCF910895209102023091030249
S1130510232B79F0F8942091060230910702F90117
S1130520EB5FFE4F41E0408332979183808342CE5C
S113053008953DCF08958091020290910302892B82
S113054051F0F894E0910602F0910702EB5FFE4F40
S113055082E080832FCE08951F920F920FB60F92E0
S113056011240BB60F922F933F934F935F936F9386
S11305707F938F939F93AF93BF93EF93FF93DBDFAF
S1130580FF91EF91BF91AF919F918F917F916F9167
S11305905F914F913F912F910F900BBE0F900FBE23
S11305A00F901F901895279AEAE0F1E0808182600D
S11305B0808314BC15BC16BC8CE987BD84B58A63E2
S11305C084BD85B5856085BDEEE6F0E080818260FE
S11305D0808329DF8BE891E097DF86E791E094DF61
S10D05E044DF7894FFCFF894FFCFB6
S9030000FC
