S010000050726F6A656374322E737265630B
S11300007CC000008CC000008AC0000088C00000D2
S113001086C0000084C0000082C0000080C00000D0
S11300207EC000007CC000007AC0000078C00000E0
S113003076C0000074C0000072C0000070C00000F0
S11300406EC000006CC000006AC0000068C0000000
S113005066C0000064C0000062C0000060C0000010
S11300605EC000005CC000005AC0000058C0000020
S113007056C0000054C0000052C0000050C0000030
S1130080D0C200004CC000004AC0000048C00000BC
S113009046C0000044C0000042C0000040C0000050
S11300A03EC000003CC000003AC0000038C0000060
S11300B036C0000034C0000032C0000030C0000070
S11300C02EC000002CC000002AC0000028C0000080
S11300D026C0000024C0000022C0000020C0000090
S11300E01EC000006F0269026F02410274029C028A
S11300F0A802410288024102B40211241FBECFEFBC
S1130100D1E2DEBFCDBF00E00CBF2AE0A0E0B2E048
S113011001C01D92A43BB207E1F7B3D2C9C270CFAC
S11301200F921F922F923F924F925F926F927F9203
S11301308F929F92AF92BF92CF92DF92EF92FF92F3
S11301400F931F932F933F934F935F936F937F93DB
S11301508F939F93AF93BF93CF93DF93EF93FF93CB
S1130160FCB7FF93FFB7FF93EDB7FEB7E093B20A76
S1130170F093B30AE091B00AF091B10AEDBFFEBF6B
S1130180FF91FFBFFF91FCBFFF91EF91DF91CF91F2
S1130190BF91AF919F918F917F916F915F914F919B
S11301A03F912F911F910F91FF90EF90DF90CF908F
S11301B0BF90AF909F908F907F906F905F904F9083
S11301C03F902F901F900F9018950F921F922F928F
S11301D03F924F925F926F927F928F929F92AF92D3
S11301E0BF92CF92DF92EF92FF920F931F932F93C0
S11301F03F934F935F936F937F938F939F93AF93AB
S1130200BF93CF93DF93EF93FF93FCB7FF93FFB7B5
S1130210FF93EDB7FEB7E093B00AF093B10AE09113
S1130220B20AF091B30AEDBFFEBFFF91FFBFFF9189
S1130230FCBFFF91EF91DF91CF91BF91AF919F915F
S11302408F917F916F915F914F913F912F911F916A
S11302500F91FF90EF90DF90CF90BF90AF909F9061
S11302608F907F906F905F904F903F902F901F9052
S11302700F90089524E131E00BC080910402909125
S113028005020196877099279093050280930402D2
S11302908091040290910502829FF001839FF00DEA
S11302A0929FF00D1124E25FFC4F8081813029F789
S11302B0209104023091050284E191E0289FF0012D
S11302C0299FF00D389FF00D1124E65FFD4FF09348
S11302D0AB0AE093AA0A808191819093B10A80933A
S11302E0B00AEC5FFE4F82E080838091040290911B
S11302F00502019687709927909305028093040262
S113030008958091020290910302892B51F0F89490
S1130310E091AA0AF091AB0AE75FFE4F8AE080837E
S113032054CF0895FC01329620E031E0DF01A901A9
S11303301D9241505040E1F7E150FF4F21E831E078
S113034020833197308331971082319760833197BE
S11303507083319710829C0127523F4FDC012D930B
S11303603C933B966083718332961082359781E08B
S113037080830895BC018091000290910102089746
S113038051F180910E03882379F0E2E2F4E021E058
S113039030E09081992351F02F5F3F4FEC5EFE4F88
S11303A028303105B1F702C020E030E0809100022E
S11303B0909101020196909301028093000244E11E
S11303C051E0249FC001259F900D349F900D11246E
S11303D0865F9D4FA7CF089581E081B980E884B9F5
S11303E0EAE0F1E080818260808382E081B9119843
S11303F01092010210920002109203021092020263
S11304001092050210920402EAE0F2E02AEA3AE0CD
S113041084E191E0DF01AC011D9241505040E1F7CD
S1130420DF01AC5FBE4F1C92EC5EFE4FE217F30798
S113043089F70895EF92FF920F931F93CF93DF9361
S11304408091020290910302892B09F097C0809158
S1130450000290910102892B09F490C0F89481E084
S113046090E0909303028093020204DF11E00F2EC8
S1130470F5E0FF2EF02D03E06894EE24E2F8C1E0ED
S1130480D0E0E091AA0AF091AB0ADF01A75FBE4F6A
S11304901C92808191819093B10A8093B00A40DECE
S11304A0A091AA0AB091AB0A8091B00A9091B10AC6
S11304B011969C938E93FD01E75FFE4F408150E0BF
S11304C04B305105F0F6FA018827EE58FF4F8F4F55
S11304D0E7C0A95FBE4F8D919C914CDFD2CFAC5F3A
S11304E0BE4F1C93C7DECDCFFD01E05FFE4FD1832D
S11304F0C0833C978081823011F4F082C2CFFD0129
S1130500EC5FFE4F8081833009F0BBCFE082B9CF2E
S1130510FD01E05FFE4F118210823C97808185309F
S113052011F41083AECFFD01EC5FFE4F8081843067
S113053009F0A7CF0083A5CFFD01EC5FFE4F8081BA
S1130540853011F4E0829DCFAC5FBE4F0C9399CF00
S1130550FD01EC5FFE4F8081843011F4F08291CF75
S1130560AC5FBE4F1C938DCFFD01EC5FFE4F10823C
S1130570AE5FBE4F8D919C917DDE83CFDF91CF9195
S11305801F910F91FF90EF900895209102023091F6
S11305900302232B79F0F8942091AA0A3091AB0A34
S11305A0F901E75FFE4F41E04083329791838083F6
S11305B00CCE0895DFCE089580910202909103023B
S11305C0892B51F0F894E091AA0AF091AB0AE75F05
S11305D0FE4F82E08083F9CD0895D0E0CDE71098F6
S11305E02F988D2F9C2F0197F1F78D2F9C2F01971A
S11305F0F1F78D2F9C2F0197F1F7DEDFF0CFD0E0DC
S1130600CDE7109A2F9A8D2F9C2F0197F1F78D2FFC
S11306109C2F0197F1F78D2F9C2F0197F1F7CCDFD9
S1130620F0CFA0910602B09107022D913C912115C3
S1130630310531F1D901AE5FBE4F8D919C91119777
S113064001978D939C93892B41F4F894F901E75F0A
S1130650FE4F88E08083B9CD0895309789F02081DA
S113066031810280F381E02DD901AE5FBE4F8D91BF
S11306709C91119701978D939C93892B71F7E5CFEA
S11306800895AADE48E050E068E08DEE92E07DDF58
S113069048E050E068E08FEF92E077DFCBCE08953A
S11306A0EE0FFF1F881F8BBF0790F691E02D199462
S10706B0F894FFCFE8
S9030000FC
