:1000000071C0000081C000007FC000007DC0000002
:100010007BC0000079C0000077C0000075C0000000
:1000200073C0000071C000006FC000006DC0000010
:100030006BC0000069C0000067C0000065C0000020
:1000400063C0000061C000005FC000005DC0000030
:100050005BC0000059C0000057C0000055C0000040
:1000600053C0000051C000004FC000004DC0000050
:100070004BC0000049C0000047C0000045C0000060
:1000800082C2000041C000003FC000003DC000002F
:100090003BC0000039C0000037C0000035C0000080
:1000A00033C0000031C000002FC000002DC0000090
:1000B0002BC0000029C0000027C0000025C00000A0
:1000C00023C0000021C000001FC000001DC00000B0
:1000D0001BC0000019C0000017C0000015C00000C0
:1000E00013C0000011241FBECFEFD1E2DEBFCDBF91
:1000F00000E00CBF2AE0A0E0B2E001C01D92A43AEB
:10010000B207E1F749D257C27BCF0F921F922F92CD
:100110003F924F925F926F927F928F929F92AF9297
:10012000BF92CF92DF92EF92FF920F931F932F9384
:100130003F934F935F936F937F938F939F93AF936F
:10014000BF93CF93DF93EF93FF93FCB7FF93FFB77A
:10015000FF93EDB7FEB7E093A20AF093A30AE091F4
:10016000A00AF091A10AEDBFFEBFFF91FFBFFF9172
:10017000FCBFFF91EF91DF91CF91BF91AF919F9124
:100180008F917F916F915F914F913F912F911F912F
:100190000F91FF90EF90DF90CF90BF90AF909F9026
:1001A0008F907F906F905F904F903F902F901F9017
:1001B0000F9018950F921F922F923F924F925F923D
:1001C0006F927F928F929F92AF92BF92CF92DF9267
:1001D000EF92FF920F931F932F933F934F935F9351
:1001E0006F937F938F939F93AF93BF93CF93DF933F
:1001F000EF93FF93FCB7FF93FFB7FF93EDB7FEB705
:10020000E093A00AF093A10AE091A20AF091A30A58
:10021000EDBFFEBFFF91FFBFFF91FCBFFF91EF91CC
:10022000DF91CF91BF91AF919F918F917F916F910E
:100230005F914F913F912F911F910F91FF90EF9000
:10024000DF90CF90BF90AF909F908F907F906F90F6
:100250005F904F903F902F901F900F90089522E154
:1002600031E00BC0809104029091050201968770E5
:100270009927909305028093040280910402909143
:100280000502829FF001839FF00D929FF00D1124D3
:10029000E05FFC4F8081813029F72091040230918A
:1002A000050282E191E0289FF001299FF00D389F1F
:1002B000F00D1124E45FFD4FF0930B02E0930A026E
:1002C000808191819093A10A8093A00AEC5FFE4FF8
:1002D00082E08083809104029091050201968770EC
:1002E0009927909305028093040208958091020259
:1002F00090910302892B51F0F894E0910A02F09159
:100300000B02E55FFE4F88E0808354CF0895FC0127
:10031000329620E031E0DF01A9011D9241505040AA
:10032000E1F7E150FF4F26E731E02083319730833A
:1003300031971082319760833197708331971082A3
:100340009C0127523F4FDC012D933C933D966083E7
:10035000718332961082379781E080830895BC01C3
:100360008091000290910102089751F18091100351
:10037000882379F0E2E2F4E021E030E090819923F3
:1003800051F02F5F3F4FEE5EFE4F28303105B1F741
:1003900002C020E030E080910002909101020196BD
:1003A000909301028093000242E151E0249FC0013A
:1003B000259F900D349F900D1124845F9D4FA7CFF2
:1003C000089581E081B982E081B91198109201020B
:1003D0001092000210920302109202021092050283
:1003E00010920402ECE0F2E02CE93AE082E191E0C4
:1003F000DF01AC011D9241505040E1F7DF01AC5FDD
:10040000BE4F1C92EE5EFE4FE217F30789F7089588
:100410001F93CF93DF938091020290910302892B67
:1004200009F063C08091000290910102892B09F4C8
:100430005CC0F89481E090E0909303028093020204
:100440000EDFC1E0D0E011E0E0910A02F0910B0272
:10045000DF01A55FBE4F1C92808191819093A10A1C
:100460008093A00A52DEE0910A02F0910B02809183
:10047000A00A9091A10A91838083DF01A55FBE4FFE
:100480008C91823099F028F4882381F0813041F0FA
:10049000DBCF8630E9F0883019F18430A9F60BC043
:1004A000E75FFE4F808191815ADFCECFEC5FFE4F38
:1004B0001083D5DEC9CFDF01A05FBE4F1196DC935C
:1004C000CE931C978C91823029F41C93DF0103C0DA
:1004D000DF0101C0DF01A05FBE4F11961C921E928A
:1004E000EC5FFE4F1082BBDEAFCFDF91CF911F914B
:1004F00008952091020230910302232B79F0F894A1
:1005000020910A0230910B02F901E55FFE4F41E0B4
:1005100040833297918380834DCE089520CF0895F4
:100520008091020290910302892B51F0F894E0919E
:100530000A02F0910B02E55FFE4F82E080833ACE23
:100540000895D0E0CDE710988D2F9C2F0197F1F7FB
:100550008D2F9C2F0197F1F78D2F9C2F0197F1F78D
:10056000DFDFF1CFD0E0CDE7109A8D2F9C2F0197E0
:10057000F1F78D2F9C2F0197F1F78D2F9C2F01976D
:10058000F1F7CEDFF1CF80910602909107029093B0
:10059000010080930000089514DF48E050E068E017
:1005A00081EA92E0A6DF48E050E068E082EB92E06A
:0A05B000A0DF2ECF0895F894FFCFCE
:00000001FF
