S010000050726F6A656374322E737265630B
S113000071C0000081C000007FC000007DC00000FE
S11300107BC0000079C0000077C0000075C00000FC
S113002073C0000071C000006FC000006DC000000C
S11300306BC0000069C0000067C0000065C000001C
S113004063C0000061C000005FC000005DC000002C
S11300505BC0000087C2000057C0000055C000000C
S113006053C0000051C000004FC000004DC000004C
S11300704BC0000049C0000047C0000045C000005C
S113008043C0000041C000003FC000003DC000006C
S11300903BC0000039C0000037C0000035C000007C
S11300A033C0000031C000002FC000002DC000008C
S11300B02BC0000029C0000027C0000025C000009C
S11300C023C0000021C000001FC000001DC00000AC
S11300D01BC0000019C0000017C0000015C00000BC
S11300E013C0000011241FBECFEFD1E2DEBFCDBF8D
S11300F000E00CBF26E0A0E0B2E001C01D92A835EC
S1130100B207E1F758D266C27BCF0F921F922F92AB
S11301103F924F925F926F927F928F929F92AF9293
S1130120BF92CF92DF92EF92FF920F931F932F9380
S11301303F934F935F936F937F938F939F93AF936B
S1130140BF93CF93DF93EF93FF93FCB7FF93FFB776
S1130150FF93EDB7FEB7E0935606F0935706E09190
S11301605406F0915506EDBFFEBFFF91FFBFFF910E
S1130170FCBFFF91EF91DF91CF91BF91AF919F9120
S11301808F917F916F915F914F913F912F911F912B
S11301900F91FF90EF90DF90CF90BF90AF909F9022
S11301A08F907F906F905F904F903F902F901F9013
S11301B00F9018950F921F922F923F924F925F9239
S11301C06F927F928F929F92AF92BF92CF92DF9263
S11301D0EF92FF920F931F932F933F934F935F934D
S11301E06F937F938F939F93AF93BF93CF93DF933B
S11301F0EF93FF93FCB7FF93FFB7FF93EDB7FEB701
S1130200E0935406F0935506E0915606F091570694
S1130210EDBFFEBFFF91FFBFFF91FCBFFF91EF91C8
S1130220DF91CF91BF91AF919F918F917F916F910A
S11302305F914F913F912F911F910F91FF90EF90FC
S1130240DF90CF90BF90AF909F908F907F906F90F2
S11302505F904F903F902F901F900F90089522E150
S113026031E00BC0809104029091050201968370E5
S1130270992790930502809304028091040290913F
S11302800502829FF001839FF00D929FF00D1124CF
S1130290E45FFC4F8081813029F720910402309182
S11302A0050282E191E0289FF001299FF00D389F1B
S11302B0F00D1124E85FFD4FF0930702E09306026E
S11302C0808191819093550680935406EC5FFE4F94
S11302D082E08083809104029091050201968370EC
S11302E09927909305028093040208958091020255
S11302F090910302892B51F0F894E0910602F09159
S11303000702E35FFE4F88E0808354CF0895FC0129
S1130310329620E031E0DF01A9011D9241505040A6
S1130320E1F7E150FF4F26E731E020833197308336
S11303303197608331977083319710829C012652E4
S11303403F4FDC012D933C933E966083718332963C
S11303501082399781E080830895209100023091C2
S1130360010224303105A1F120910C032223A9F0CC
S113037020911E04222359F020913005222351F0AC
S11303802091420621110CC043E050E00BC041E033
S113039050E008C042E050E005C040E050E002C038
S11303A044E050E0BC01809100029091010201966A
S11303B0909301028093000222E131E0429FC00148
S11303C0439F900D529F900D1124885F9D4F9FCFA6
S11303D0089581E081B980E884B9EAE0F1E08081A0
S11303E08260808382E081B9119810920102109298
S11303F0000210920302109202021092050210925F
S11304000402E8E0F2E020E536E082E191E0DF0179
S1130410AC011D9241505040E1F7DF01AC5FBE4F8B
S11304201C92EE5EFE4FE217F30789F70895CF930F
S11304308091020290910302892B09F045C08091BA
S1130440000290910102892B09F43EC0F89481E0E6
S113045090E0909303028093020201DFC1E0E091F7
S11304600602F0910702DF01A35FBE4F1C92808158
S11304709181909355068093540647DEE0910602DD
S1130480F0910702809154069091550691838083E0
S1130490DF01A35FBE4F8C91813031F058F0823080
S11304A049F0883061F0DBCFE55FFE4F80819181B8
S11304B054DFD5CFEC5FFE4FC083D1DED0CFEC5FED
S11304C0FE4F1082CCDECBCFCF9108952091020253
S11304D030910302232B79F0F89420910602309195
S11304E00702F901E35FFE4F41E0408332979183B5
S11304F0808360CE089531CF089580910202909157
S11305000302892B51F0F894E0910602F09107025E
S1130510E35FFE4F82E080834DCE0895D0E0CDE7C7
S113052010982F988D2F9C2F0197F1F78D2F9C2FCA
S11305300197F1F78D2F9C2F0197F1F7DEDFF0CFB4
S1130540D0E0CDE7109A2F9A8D2F9C2F0197F1F7C9
S11305508D2F9C2F0197F1F78D2F9C2F0197F1F789
S1130560CCDFF0CF1F920F920FB60F9211240BB66F
S11305700F922F933F934F935F936F937F938F9338
S11305809F93AF93BF93EF93FF93F894B6DF789460
S1130590FF91EF91BF91AF919F918F917F916F9157
S11305A05F914F913F912F910F900BBE0F900FBE13
S11305B00F901F9018950DDF48E050E068E08EE83A
S11305C092E084DF48E050E068E080EA92E07EDF79
S10B05D02ECF0895F894FFCF2B
S9030000FC
