S010000050726F6A656374322E737265630B
S113000071C0000081C000007FC000007DC00000FE
S11300107BC0000079C0000077C0000075C00000FC
S113002073C0000071C000006FC000006DC000000C
S11300306BC0000069C0000067C0000065C000001C
S113004063C0000061C000005FC000005DC000002C
S11300505BC0000059C0000057C0000055C000003C
S113006053C0000051C000004FC000004DC000004C
S11300704BC0000049C0000047C0000045C000005C
S113008089C2000041C000003FC000003DC0000024
S11300903BC0000039C0000037C0000035C000007C
S11300A033C0000031C000002FC000002DC000008C
S11300B02BC0000029C0000027C0000025C000009C
S11300C023C0000021C000001FC000001DC00000AC
S11300D01BC0000019C0000017C0000015C00000BC
S11300E013C0000011241FBECFEFD1E2DEBFCDBF8D
S11300F000E00CBF2AE0A0E0B2E001C01D92A43BE6
S1130100B207E1F775D283C27BCF0F921F922F9271
S11301103F924F925F926F927F928F929F92AF9293
S1130120BF92CF92DF92EF92FF920F931F932F9380
S11301303F934F935F936F937F938F939F93AF936B
S1130140BF93CF93DF93EF93FF93FCB7FF93FFB776
S1130150FF93EDB7FEB7E093B20AF093B30AE091D0
S1130160B00AF091B10AEDBFFEBFFF91FFBFFF914E
S1130170FCBFFF91EF91DF91CF91BF91AF919F9120
S11301808F917F916F915F914F913F912F911F912B
S11301900F91FF90EF90DF90CF90BF90AF909F9022
S11301A08F907F906F905F904F903F902F901F9013
S11301B00F9018950F921F922F923F924F925F9239
S11301C06F927F928F929F92AF92BF92CF92DF9263
S11301D0EF92FF920F931F932F933F934F935F934D
S11301E06F937F938F939F93AF93BF93CF93DF933B
S11301F0EF93FF93FCB7FF93FFB7FF93EDB7FEB701
S1130200E093B00AF093B10AE091B20AF091B30A14
S1130210EDBFFEBFFF91FFBFFF91FCBFFF91EF91C8
S1130220DF91CF91BF91AF919F918F917F916F910A
S11302305F914F913F912F911F910F91FF90EF90FC
S1130240DF90CF90BF90AF909F908F907F906F90F2
S11302505F904F903F902F901F900F90089524E14E
S113026031E00BC0809104029091050201968770E1
S1130270992790930502809304028091040290913F
S11302800502829FF001839FF00D929FF00D1124CF
S1130290E25FFC4F8081813029F720910402309184
S11302A0050284E191E0289FF001299FF00D389F19
S11302B0F00D1124E65FFD4FF093AB0AE093AA0A18
S11302C0808191819093B10A8093B00AEC5FFE4FD4
S11302D082E08083809104029091050201968770E8
S11302E09927909305028093040208958091020255
S11302F090910302892B51F0F894E091AA0AF091AD
S1130300AB0AE75FFE4F88E0808354CF0895FC0179
S1130310329620E031E0DF01A9011D9241505040A6
S1130320E1F7E150FF4F26E731E020833197308336
S1130330319710823197608331977083319710829F
S11303409C0127523F4FDC012D933C933B966083E5
S1130350718332961082359781E080830895BC01C1
S11303608091000290910102089751F180910E034F
S1130370882379F0E2E2F4E021E030E090819923EF
S113038051F02F5F3F4FEC5EFE4F28303105B1F73F
S113039002C020E030E080910002909101020196B9
S11303A0909301028093000244E151E0249FC00134
S11303B0259F900D349F900D1124865F9D4FA7CFEC
S11303C0089581E081B980E884B9EAE0F1E08081B0
S11303D08260808382E081B91198109201021092A8
S11303E0000210920302109202021092050210926F
S11303F00402EAE0F2E02AEA3AE084E191E0DF0173
S1130400AC011D9241505040E1F7DF01AC5FBE4F9B
S11304101C92EC5EFE4FE217F30789F708951F93D1
S1130420CF93DF938091020290910302892B09F00C
S113043061C08091000290910102892B09F45AC095
S1130440F89481E090E0909303028093020207DF26
S1130450C1E0D0E011E0E091AA0AF091AB0ADF011B
S1130460A75FBE4F1C92808191819093B10A8093C3
S1130470B00A4BDEE091AA0AF091AB0A8091B00A6F
S11304809091B10A91838083DF01A75FBE4F8C9165
S1130490823099F028F4882381F0813041F0DBCF59
S11304A08630F1F0883009F18430A9F60BC0E95F99
S11304B0FE4F8081918153DFCECFEC5FFE4F1083DE
S11304C0CEDEC9CFDF01A05FBE4F1196DC93CE9381
S11304D01C978C91823009F0BECFFD011083BBCFF5
S11304E0E05FFE4F11821082B6CFEC5FFE4F1082A8
S11304F0B6DEB1CFDF91CF911F9108952091020212
S113050030910302232B79F0F8942091AA0A3091B8
S1130510AB0AF901E75FFE4F41E0408332979183D4
S1130520808348CE08951BCF089580910202909154
S11305300302892B51F0F894E091AA0AF091AB0AD6
S1130540E75FFE4F82E0808335CE0895D0E0CDE7AB
S113055010982F988D2F9C2F0197F1F78D2F9C2F9A
S11305600197F1F78D2F9C2F0197F1F7DEDFF0CF84
S1130570D0E0CDE7109A2F9A8D2F9C2F0197F1F799
S11305808D2F9C2F0197F1F78D2F9C2F0197F1F759
S1130590CCDFF0CF80910602909107029C01009776
S11305A031F1DC01AE5FBE4F8D919C9111970197A3
S11305B08D939C93892B41F4F894F901E75FFE4FE6
S11305C086E08083F7CD0895309789F020813181CA
S11305D00280F381E02DD901AE5FBE4F8D919C91D5
S11305E0119701978D939C93892B71F7E5CF08950B
S11305F0E8DE48E050E068E086EA92E07FDF48E029
S113060050E068E088EB92E079DF09CF0895F89430
S1050610FFCF16
S9030000FC
